S01200006C616E647A6F204B36582E7372656391
S1130000F8FF002011040000271900002719000040
S113001027190000271900002719000027190000DC
S113002027190000271900002719000027190000CC
S113003027190000271900002719000027190000BC
S113004027190000271900002719000027190000AC
S1130400FFFFFFFFFFFFFFFFFFFFFFFFFEFFFFFFF9
S113041062B64FF000004FF000014FF000024FF0C1
S113042000034FF000044FF000054FF000064FF0BA
S113043000074FF000084FF000094FF0000A4FF09A
S1130440000B4FF0000C02F07BFCFEE7DFF808160F
S11304500A6842F004020A6022F002020A600822DA
S1130460521E0B685FEA006C4CBF43F0080323F094
S113047008030B6040000B6843F002030B6000BFED
S11304800B6823F002030B60002AE9D170470000D7
S1130490DFF8C4150A6822F004020A6022F002029E
S11304A00A600822521E0B685FEA006C4CBF43F0DE
S11304B0080323F008030B6040000B6843F00203B9
S11304C00B6000BF0B6823F002030B60002AE9D124
S11304D0704770B504460025A5F15000C0B2FFF77F
S11304E0D7FF0120FFF7D4FF1020FFF7D1FF8026AC
S11304F02046FFF7ABFF761EFAD16D1C082DEBDB0F
S113050070BD10B582B001220121612000F086FE89
S113051001221146622000F081FE0122114663206F
S113052000F07CFE01221146642000F077FE0022D8
S113053001214F2000F072FEDFF82005016C41F02C
S1130540020101644FF47A5421F01001016401683E
S113055021F4004101603221ADF80040BDF80020D3
S1130560531EADF80030002AF8D1491EF4D10168B9
S113057041F400410160AE20FFF78AFF0020FFF73D
S113058087FF1020FFF784FF4020FFF781FF8120C1
S1130590FFF77EFFCF20FFF77BFFA120FFF778FF57
S11305A0C820FFF775FFA620FFF772FFA820FFF70A
S11305B06FFF3F20FFF76CFFD320FFF769FF002098
S11305C0FFF766FFD520FFF763FF8020FFF760FF8A
S11305D0D920FFF75DFFF120FFF75AFFDA20FFF77C
S11305E057FF1220FFF754FFDB20FFF751FF402095
S11305F0FFF74EFF2020FFF74BFF0220FFF748FFD5
S11306008D20FFF745FF1420FFF742FFA420FFF7DA
S11306103FFFA620FFF73CFFAF20FFF739FF002084
S1130620FFF757FFB020FFF733FF1020FFF730FF2D
S11306300120FFF72DFF0020FFF74BFF0A20ADF844
S11306400040BDF800104A1EADF800200029F8D182
S1130650401EF4D10FF20C442246052000F009F9A3
S113066022460221052000F004F922460421052037
S113067000F0FFF8224602B0BDE810400621052034
S1130680F7E02DE9F84F04460D46934600270FF294
S1130690405858E020380606E4B2792CA4BF002460
S11306A06D1CA5F15000C0B2FFF7F2FE200940F026
S11306B010094846FFF7ECFE04F00F0040F0010A71
S11306C05046FFF7E5FE360D16F80800FFF7BEFEAC
S11306D046447078FFF7BAFEB078FFF7B7FEF078BB
S11306E0FFF7B4FE3079FFF7B1FE7079FFF7AEFE85
S11306F0B079FFF7ABFEF079FFF7A8FEA5F14F0044
S1130700C0B2FFF7C5FE4846FFF7C2FE5046FFF7EA
S1130710BFFE307AFFF79AFE707AFFF797FEB07A41
S1130720FFF794FEF07AFFF791FE307BFFF78EFE21
S1130730707BFFF78BFEB07BFFF788FEF07BFFF743
S113074085FE08347F1CFFB217F80B000028A1D1E6
S1130750BDE8F18F2DE9F84F04468A4693460027F9
S113076026E07F1CFFB2F0B2FFF792FE4046FFF78F
S11307708FFE4846FFF78CFE10250020FFF766FE2B
S11307806D1EFAD1AAF14F00C0B2FFF781FE4046B8
S1130790FFF77EFE4846FFF77BFE4FF0100800206F
S11307A0FFF754FEB8F10108F9D1BF1C0E34FFB2B3
S11307B017F80B0000285AD0002001250FF2AC21B5
S11307C007EB0B0201E0801C891C0B78802B0CDBEF
S11307D017F80B60B34202BF4B785678B342F2D19C
S11307E0C0B2C0EBC001480085B2E4B2772CA4BF0C
S11307F000240AF1010AAAF15006F0B2FFF748FEFC
S1130800200940F010084046FFF742FE04F00F00B4
S113081040F001094846FFF73BFE012DA1D0F0B29C
S1130820FFF736FE4046FFF733FE4846FFF730FE3B
S11308300FF24C202D180E2615F8010BFFF706FEBB
S1130840761EF9D1AAF14F00C0B2FFF721FE40464F
S1130850FFF71EFE4846FFF71BFE4FF00E0815F883
S1130860010BFFF7F3FDB8F10108F8D19DE7BDE8EE
S1130870F18F2DE9F04182B00446884616460027E0
S113088000AD0CE0B81900AA407868704146002019
S1130890A870E0B2FFF75EFF0E34BF1CFFB2B85D74
S11308A068B180288DF80000ECDA0020687000AA96
S11308B04146E0B2FFF7E5FE08347F1CEEE7BDE8F1
S11308C0F3812DE9F04F00250E4683B090464FF09A
S11308D0000EAA46112EA4BF4FEA111A4FF0010EC2
S11308E00246812AA4BFA2F1800045100024BEF173
S11308F0000F5CD00021ADB2594E0AFB02F001FB9F
S1130900005E05F1800085420FDAA4B2A0194FF011
S1130910800C1FFA8EF7641C17F8039000F8019BF3
S113092007F1010EBCF1010CF3D1491C1029E4DBE1
S113093000250020FFF7CDFD4FF47A50ADF80400F8
S1130940BDF80400411EADF804100028F8D1AA46F1
S1130950AAF15000C0B2FFF79BFD1020FFF798FDED
S11309600120FFF795FD8035ADB205F1800080B21E
S1130970AC1900EB06098027217800206D1C414545
S113098038BFC02099F80010414538BF40F00C0032
S1130990FFF75CFD641C09F101097F1EECD10AF12B
S11309A0010ABAF1080FD3DB03B0BDE8F08FC6F13A
S11309B0100600960020009F294ECC010146012F0D
S11309C021DB80B210FA84F900EB060CB144202735
S11309D019F801BB0CF801BB001D19F801BB0CF898
S11309E001BB7F1E19F801BB0CF801BB19F801BB50
S11309F00CF801BBECD1491C009F89B2B942E0DB81
S1130A0089B2102994DA0AFB02F71FFA8EFEADB2FE
S1130A100EFB075480B20EF1010E00EB060C4FF0F2
S1130A202009A4B2001DE75C0CF8017B641CA4B28D
S1130A30E75C0CF8017B641CA4B2E75C0CF8017B56
S1130A40641CA4B2E75C0CF8017B641CB9F10109D5
S1130A50E7D1491CD4E70000C0F00F4080F00F40FC
S1130A60B808FF1F4255414100000000B1B1BEA9C2
S1130A70BABDBFD5BABDCCECB4F3D1A70000000019
S1130A805C444444C475464444C444445C0020204B
S1130A902213120A04040A091020000088C43396A1
S1130AA0D4B7945610EF08F80800003F2014263DF0
S1130AB01624201906192000042424242F24E424B5
S1130AC02F2424240400212111110907011F2121AD
S1130AD02121310012248008C87FC808FE2222FE8A
S1130AE00000180601000F0427180721213F000009
S1130AF002E20207F28242322267A222020020208E
S1130B003E22233E223E22223E2120001CC4444495
S1130B104445F644444444C41C00003F12121212DB
S1130B201F121212123F000000F848484848FF48BC
S1130B30484848F800000007020202021F2222224D
S1130B4022233800404141414141E151494543415B
S1130B5040000000000020203F00000000000000D2
S1130B6010101214D03F1090101010F0000020103C
S1130B700806010000002320100F00001008FC03E9
S1130B8088640704F40424CC00002018011C2020ED
S1130B90232D21300004180000FE2222FE00FE4214
S1130BA0C25252DE0000201F01213F003F100B04FF
S1130BB00A112000404844262B9212122A26424051
S1130BC04000002111090503010121211F0000003B
S1130BD00000000000000000000000000000000011
S1130BE0000000F8000000000000003330000000A6
S1130BF000100C06100C06000000000000000000AD
S1130C0040C07840C0784000043F04043F0404001E
S1130C10007088FC08300000001820FF211E00002E
S1130C20F008F000E018000000211C031E211E0043
S1130C3000F00888700000001E21232419272110C9
S1130C4010160E000000000000000000000000006C
S1130C50000000E018040200000000071820400013
S1130C6000020418E0000000004020180700000003
S1130C70404080F0804040000202010F0102020067
S1130C80000000F0000000000101011F010101004B
S1130C90000000000000000080B0700000000000B0
S1130CA00000000000000000000101010101010139
S1130CB000000000000000000030300000000000D0
S1130CC000000000806018040060180601000000A5
S1130CD000E010080810E000000F102020100F00A2
S1130CE0001010F8000000000020203F2020000029
S1130CF00070080808887000003028242221300081
S1130D0000300888884830000018202020110E0088
S1130D100000C02010F8000000070424243F240031
S1130D2000F80888880808000019212020110E0006
S1130D3000E0108888180000000F112020110E0018
S1130D4000380808C83808000000003F0000000010
S1130D500070880808887000001C222121221C00D1
S1130D6000E010080810E0000000312222110F00FA
S1130D70000000C0C000000000000030300000008F
S1130D8000000080000000000000806000000000FF
S1130D900000804020100800000102040810200018
S1130DA04040404040404000040404040404040063
S1130DB000081020408000000020100804020100F8
S1130DC0007048080808F0000000003036010000F8
S1130DD0C030C828E810E0000718272423140B00AB
S1130DE00000C038E0000000203C23020227382025
S1130DF008F8888888700000203F202020110E0009
S1130E00C0300808080838000718202020100800FF
S1130E1008F808080810E000203F202020100F00E8
S1130E2008F88888E8081000203F202023201800B4
S1130E3008F88888E8081000203F2000030000001C
S1130E40C03008080838000007182020221E0200BD
S1130E5008F808000008F808203F210101213F207C
S1130E60000808F8080800000020203F20200000A7
S1130E7000000808F8080800C08080807F00000097
S1130E8008F888C028180800203F200126382000D0
S1130E9008F8080000000000203F20202020300037
S1130EA008F8F800F8F80800203F003F003F200051
S1130EB008F830C00008F808203F200007183F0059
S1130EC0E01008080810E0000F10202020100F0088
S1130ED008F808080808F000203F2101010100007B
S1130EE0E01008080810E0000F18242438504F00C0
S1130EF008F8888888887000203F2000030C302080
S1130F0000708808080838000038202121221C00BD
S1130F10180808F8080818000000203F2000000006
S1130F2008F808000008F808001F202020201F00EF
S1130F300878880000C83808000007380E0100004F
S1130F40F80800F80008F800033C0700073C030019
S1130F50081868808068180820302C03032C30207F
S1130F600838C800C83808000000203F20000000EE
S1130F7010080808C8380800203826212020180046
S1130F80000000FE020202000000007F404040001A
S1130F90000C30C000000000000000010638C00052
S1130FA000020202FE000000004040407F000000FA
S1130FB0000004020202040000000000000000001F
S1130FC0000000000000000080808080808080801D
S1130FD00002020400000000000000000000000005
S1130FE000008080808000000019242222223F20FB
S1130FF008F8008080000000003F112020110E003E
S11310000000008080800000000E112020201100CC
S1131010000000808088F800000E112020103F207E
S11310200000808080800000001F22222222130002
S1131030008080F0888888180020203F202000004D
S11310400000808080808000006B94949493600002
S113105008F8008080800000203F210000203F200D
S113106000809898000000000020203F202000000D
S1131070000000809898000000C08080807F0000FD
S113108008F8000080808000203F24022D302000DA
S1131090000808F8000000000020203F2020000085
S11310A08080808080808000203F20003F20003F9F
S11310B08080008080800000203F210000203F20AD
S11310C00000808080800000001F202020201F005E
S11310D0808000808000000080FFA12020110E008D
S11310E00000008080808000000E112020A0FF807E
S11310F0808080008080800020203F21200001002B
S1131100000080808080800000332424242419007F
S1131110008080E0808000000000001F202000008C
S11311208080000000808000001F202020103F20CD
S1131130808080000080808000010E30080601005D
S113114080800080008080800F300C030C300F0002
S113115000808000808080000020312E0E3120002D
S1131160808080000080808080818E70180601005D
S113117000808080808080000021302C222130007B
S113118000000000807C020200000000003F40409C
S113119000000000FF00000000000000FF0000004D
S11311A00002027C800000000040403F000000007C
S11311B00006010102020404000000000000000017
S11311C03748016841F478510160704770B40B00EE
S11311D01CBF022B032B1FD1324C450904EB8505A0
S11311E003F580736D6900F01F06D21845F82620B8
S11311F0410954F821200123546900F01F0003FA27
S113120000F024EA0000506101F1570000F01F00D3
S1131210254903FA00F0086070BC704778B40B00ED
S11312201CBF0329022919D101F5807100914109DC
S11312301C4B03EB810200F01F045269009D42F82D
S1131240245000F01F0053F821104A69012303FAC7
S113125000F022EA0000486171BC70474109114B5B
S113126003EB810400F01F05646954F8256026F43B
S1131270E06646F4807644F8256000F01F0053F8D9
S11312802110012303FA00F04B6903434B61002A48
S11312900A680CBF22EA00001043086071BC704762
S11312A0388004403404FF1F08E100E0DFF800F058
S11312B08906FF1F00B583B04FF4202203216D205F
S11312C0FFF784FF4FF4202203216E20FFF77EFFF7
S11312D0222002906C23A020019000200090DFF8CF
S11312E09823DFF89813042000F0DEF9DFF8901358
S11312F0102008706A20DFF88C13FFF7D7FFDFF89F
S113130088136020087003B05DF804EBDFF87C13E9
S11313101420FFF7CBBFDFF8603364220321A02041
S1131320FFF7CFBA2DE9FE4FA6B0064600A89821D4
S113133000F0CCFA002400252246AC46A046A6467E
S1131340A1461346114600A83778652FA7BF761C1F
S1131350A027761C00270770491C3778652F03DB0C
S1131360A027761C477001E0761C4270491C801C43
S11313708C29E9DBC6480678304600A941188A461C
S113138006E0401E00250122052400B2AAF1010A4C
S113139006281BDB074600AABA1802E07C1E27B207
S11313A0521E041FBC420CDA012F0ADB9AF80040DB
S11313B092F800B0A4EB0B04642CACBF6D1C0025A8
S11313C0ECE7EAB2032ADCDB84B20022304606E012
S11313D0401CCC4601234FF0870800B2491C8728E3
S11313E01EDA074600ABFB1800F1040802E07F1C7C
S11313F03FB25B1C4745B8BF872F0ADA0D7893F8D4
S113140000A0A5EB0A05642DACBF0CF1010CCC4681
S1131410EDE75FFA8CF3032BDADB1FFA80F8002385
S1131420B2BB20B2014600AD4D19CC466D1C271F3E
S113143008E015F801A9D644491E0CF1010C1FFA65
S11314408EFE09B28F4201DA0129F2DA5FFA8CF1D9
S11314509EFBF1FE1FFA8EFE0025211D01E0401CBB
S113146000B28842B8BF87280CDA0DF1000C84441E
S11314701CF8017CA7EB0E073FB2642FACBF6D1CB8
S11314800025ECE7E8B2032802DB2046012400E053
S1131490052027990870002B3DD10FFA88F0002110
S11314A0844608F104070CE000AD6544491C15F8B6
S11314B0015C59FA85F90CF101051FFA89F90FFA53
S11314C085FCBC45B8BFBCF1870FEDDBC9B299FB05
S11314D0F1F900A91FFA89F74FF0000C4118A8F19F
S11314E0040E02E0401E00B2491E86450BDA0128B4
S11314F009DB0D78ED1B2DB2642DACBF0CF1010C92
S11315004FF0000CEEE75FFA8CF0032803DB404653
S11315104FF0010800E087202699087082F001004E
S1131520184302420BD108EB0400289900EBD07059
S113153040100870564928980078087003E01A4251
S11315401CBF2898067027980470269880F800809D
S113155029B0BDE8F08F401A00F113024D49132A57
S113156038BF6FF009020BD300F122020E2A38BFF4
S11315706FF00E0204D310F1230F04DA6FF013029C
S11315800A8000224A80421E132A38BF6FF00E02DE
S113159007D3A0F115020E2A01D31F2804DB6FF034
S11315A013020A8000224A80B1F904C0B1F9023062
S11315B0B1F90020A0EB0C0C0CFB03F310FB02327E
S11315C012B2B2F5167FC8BF4FF4167203DC12F5DF
S11315D0167FB8BF304A888002F58850F83000B2D0
S11315E070472DE9F8432D4C676890461E46081A4B
S11315F000F080F905466560304600F085F929461B
S113160000F092F9A16800F0FBF90646B4F80090E6
S1131610A660404600F078F9294600F085F9204993
S113162000F030FA314600F0EBF98046284639469E
S113163000F0A6FA0646089800F066F9314600F074
S113164073F9184900F01EFA414600F0D9F900F088
S11316500BFB484400B210F5AF7F07DBB0F5AF7F5A
S1131660C8BF4FF4AF7002DC012800DA00202080EC
S1131670B4F90000BDE8F2838C04FF1F10F10F40A1
S11316805AE400E0E71F000004E400E0DF2000006B
S11316907404FF1F7604FF1FA8FDFFFFAC08FF1FA3
S11316A0000020410000C8422DE9F0479DF9204088
S11316B014B94FF001080AE0012C08BF4FF00208EA
S11316C005D0022C0CBF4FF004084FF01008764EE2
S11316D0DFF8D8E1776847F002077760376847F0AA
S11316E0020737600E46470147F80E60BE4404F017
S11316F00707CEF810200022AEF80420AEF81480BC
S1131700220202F4E0623A43AEF80620099D684FD3
S11317106A04520CAEF81620AEF81E203A6822F085
S113172080023A60CEF808800022CEF80C200A9A93
S11317305FEA826954BF6D420025CEF818500A252D
S1131740AEF81C505D09313545F0800E594DDFF877
S11317506CC100F805E05D095CF825E04FF0010C70
S1131760DEF8149003F01F0A0CFA0AFA29EA0A09AF
S1131770CEF8149003F01F03DFF844E15EF825501F
S113178002F00309920942EA094242F4807245F8E0
S113179023202CB1022C06D03CBF0022B28004E0EE
S11317A00022327101E000227260103901F03F0121
S11317B001EBC802D2B291420DDAB30903F0070378
S11317C05EF8233003EB8103511A4FF4817243F81E
S11317D0042B491EFBD1796A0CFA00F008437862A5
S11317E0BDE8F087F0B4B2F5004F28BF47F6FF72AA
S11317F0344C354E44F8202052042B4C656845F097
S113180002056560520C256845F002052560440117
S1131810264D6651641900252661A580A582E580C0
S1131820E282E28301F01F0C214A156825F080054D
S113183015600125A5600025E560A5610A25A5833D
S11318404C0931341B4D44F0800444554D091B4C64
S113185054F825607769012404FA0CFC27EA0C0784
S1131860776101F01F01164E56F8255003F0030668
S11318709B0943EA064343F4807345F8213004FA94
S113188000F1536A0B435362D3681943D16000F0EB
S11318901F01094A000404FA01F1400D42F8201026
S11318A0F0BC7047000000003C8004400090004001
S11318B0008000400010024000E100E03404FF1FFB
S11318C04804FF1F6C08FF1F0C000440002200F0B6
S11318D0EDB950F8041B61B150F8042BD30744BF91
S11318E0A9F101039A18002342F8043B091FFAD115
S11318F0EFE77047002840F10980F446404200F0C9
S113190005F850F000406047002800BF0AD0B0FA44
S113191080F18840D1F19D01C905020672F10042AF
S113192041EB10207047FEE7FF2212EAD05C1DBF96
S113193012EAD153944593422BE09C44D30780EAA6
S113194001021A4043EA002043EA0121A1FB0030CE
S1131950410038BF40007CF17F010BDBFE294ADAED
S11319605B0842EAC15153EA006373F1004C51EB46
S113197010207047D1F1080CDCF120012FDB5B084B
S113198010FA01F10B4373F1004120FA0CF05041BD
S1131990704794451CBF02EAD153934280EA010286
S11319A002F000421DD0400019D0490017D05BB9A5
S11319B0634514D00902B1FA81F39940BCEB030CDE
S11319C0C00140F00040C1E70002B0FA80FC10FA08
S11319D00CF0B3EB0C0CC90141F00041B6E7100068
S11319E0704740000AD0490008D010F1807F94BFAE
S11319F011F1807F02E042F0FF407047D04370470E
S1131A0090EA010F44BF81F0004100F0C1B800BF6B
S1131A10421A3CBF801A89184FF0004CC0F3C752D9
S1131A20FF2A24D0C1F3C75313B3D21AD2F1190336
S1131A3027DD4CEA01214CFA03F321EA0303D140E8
S1131A40C20D4CEA0020401834BF20EA0C004CEAD6
S1131A505000D20553EA006373EB0C0C52EB1020D8
S1131A60420012F1807F38BF7047C00DC005704737
S1131A70490212BF9A4200EB5120F8E7D2F1170352
S1131A80D9D5704710B5FF2313EAD0541DBF13EA0C
S1131A90D1529C429A4239E0A41ADA0780EA01033F
S1131AA0134042EA012142EA0020421A3CBF641E6C
S1131AB001EB4202090AB2FBF1FE01FB1E221202F3
S1131AC0B2FBF1F001FB10226EF30F201202B2FB05
S1131AD0F1FE4EEA00207F3406DDFE2C24DA53EAC0
S1131AE0500050EBC45010BDD4F1020401FB1E227F
S1131AF040F08071192C1DDC21FA04F0C4F120049B
S1131B00A140114371F10042584110BD9C421ABFDB
S1131B1003EAD1529A420FE080EA010E0EF000432C
S1131B20400004D0490016D143F0FF4010BD4900E5
S1131B3008BFD343180010BD9C4205D1D21AF7D078
S1131B4001F00041484010BD4A0212BF0846484017
S1131B5000F0004010BD4AB90902B1FA81F2914087
S1131B6044B1A418C00140F000409EE7C90141F00F
S1131B70004152420002B0FA80F4A040141B94E7E2
S1131B8090EA010F44BF81F00041FFF741BF00BF5D
S1131B90431A4FF000423EBF5340C01AC91800BF59
S1131BA0D3095FEAD05C13EB400F34BFB3EB410FB2
S1131BB040E07CEBD1530CD342EA012122D8D1EB93
S1131BC0402009D3400A28BF5FEA500140EBCC50C3
S1131BD07047401A15D04002B0FA80F2521C90406F
S1131BE0400A4FEA3C23B3EB026384BF00EB73006B
S1131BF007E040F400001A16DB07C2F10102D040EE
S1131C0018437047182BFCDC31FA03F202FA03F391
S1131C10591A38BF42F00102D2EB40203CBF4000C9
S1131C20ACF1010C5FEACC5CC20572F100414CEBF3
S1131C305020704713EB400F0FD24B0009D0ACEB90
S1131C40D153022B03DB4902172BDDDD704791438F
S1131C50401A4300D5D10020704713EB410FD0D375
S1131C606FF00000704700004100090E7F3915D461
S1131C70D1F11F0114D4400007D2C00140F000404C
S1131C80C84048BF6FF000407047C00140F00040BA
S1131C90C8404CBF4FF0004040427047002070479E
S1131CA000424FF0004058BFC043704700B500BF2A
S1131CB0130096469446103928BFA0E80C50FAD871
S1131CC05FEA417C28BF0CC048BF40F8042BC90719
S1131CD028BF20F8022B48BF00F8012B00BD0000EC
S1131CE000000000000000000000000010011501C9
S1131CF02001FFFFFFFF000000800340009003402D
S1131D0000800B4000F00F4040F00F4080F00F4087
S1131D10C0F00F4000F10F400090044000A00440C8
S1131D2000B0044000C0044000D0044000A00640BD
S1131D3000B0064000C0064000D0064000A00E409F
S1131D4000B00E404700000000003C00000000000E
S1131D500000000000470000000000000000000038
S1131D60000000000000000000000000000000006F
S1131D70000000000000000000000000000000005F
S1131D80000000000000000000000000000000004F
S1131D90000000000000000000000000000000003F
S1131DA0000000000000000000000000000000002F
S1131DB0000000000000000000000000000000001F
S1131DC0000000000000000000000000000000000F
S1131DD000000000000000000000000000000000FF
S1131DE000000000000000000000000000000000EF
S1131DF000000000000000000000000000000000DF
S1131E0000000000000000000000000000000000CE
S1131E1000000000000000000000000000000000BE
S1131E2000000000000000000000000000000000AE
S1131E30000000000000000000000000000000009E
S1131E40000000000000000000000000000000008E
S1131E50000000000000000000000000000000007E
S1131E60000000000000000000000000000000006E
S1131E70000000000000000000000000000000005E
S1131E80000000000000000000000000000000004E
S1131E90000000000000000000000000000000003E
S1131EA0000000000000000000000000000000002E
S1131EB0000000000000000000000000000000001E
S1131EC0000000000000000000000000000000000E
S1131ED000000000000000000000000000000000FE
S1131EE000000000000000000000000000000000EE
S1131EF000000000000000000000000000000000DE
S1131F0000000000000000000000000000000000CD
S1131F1000000000000000000000000000000000BD
S1131F2000000000000000000000000000000000AD
S1131F30000000000000000000000000000000009D
S1131F40000000000000000000000000000000008D
S1131F5000000000000000006F48704B016841F071
S1131F600101016001226E4841881A70491C4180B8
S1131F700188491C0180CA0702D46A4B01221A70E5
S1131F800322114202D1684B01221A7089B20A4617
S1131F900A2392FBF3F303EB830CB2EB4C0304D15F
S1131FA0DFF888C101238CF800300F23194202D1D5
S1131FB05F4B01211970142192FBF1F101EB8103B4
S1131FC0B2EB830102D15B4B01211970C82192FB52
S1131FD0F1F1C82303FB112121B9574A01211170E2
S1131FE000210180704778B45448554904688A79BF
S1131FF08B68A40433D5046844F400540460CC7999
S1132000ECB1032A1BDA0025CD7102E0BDF80050C3
S11320106D1CADF80050BDF80050782DF6DB02EBD6
S11320208206484D05EB4614474D2C60521C474C24
S1132030256845F0100525601024454D2C60454C5D
S113204025886D1C2580ADB21C88A54207D10124CA
S1132050CC714FF6FF751C88AC4218BF9B1C0468FA
S113206064040BD502683B4B42F4804202600124B5
S113207000221A80CA7101F10C034C718A718B60C1
S11320800268520505D5026842F4806202600122AA
S11320900A710268920505D5026842F40072026072
S11320A00122CA700268D20505D5026842F4807222
S11320B0026001228A700268120605D5026842F0A5
S11320C08002026001224A700268520605D5026845
S11320D042F0400202600120087071BC70471B4846
S11320E01D4A816941F0100181611021116001686C
S11320F021F010010160012018490870704713484D
S1132100816941F040018161016841F04001016051
S1132110134833E0000000000C7103408004FF1FEB
S11321206008FF1F0311FF1F8104FF1F0411FF1F1D
S11321300511FF1F8204FF1F0611FF1FA0C00440EA
S11321401004FF1F8C04FF1F909000400C8000407F
S113215000E100E0FE10FF1F80E100E00211FF1F1C
S11321600111FF1F0348016841F08001016002482A
S113217004E000BF000004400011FF1F0178491C67
S1132180017070472DE9F04782B072B60122012137
S11321901C20FFF743F8002201214D20FFF73EF8F1
S11321A04FF4E131002000F0E1F84FF4E131052073
S11321B000F0DCF86348006800EB8001002000F0C8
S11321C09BF961492020087054206049FFF76EF89C
S11321D000F0BEF9FFF76EF8FEF793F900F0C6F9C8
S11321E000F0D3F900F0DCF900F0F8F9584C0020C5
S11321F0A4F8F401A021B4F8F40100EB800204EB8C
S11322004210103000F038FAA020A4F8F601B4F817
S1132210F401401CA4F8F40180B20328EADB502046
S1132220A4F8F8010520A0720020E072207362B6C1
S1132230484D494EDFF82481494FDFF82891DFF8F3
S113224028A1207908B1002020716079A8B300206A
S1132250607104F50073524604F5FF71484600F0BE
S1132260DCF9B4F9FE01B4F90012E37AA27A081891
S113227000EBD0704010A4F8FA01207BB4F9F811F7
S11322800090B4F9FA01FFF7ACF9A4F8FC010021BD
S11322900022084600F0C6FAB4F8FC21012100200F
S11322A000F0C0FA00220221104600F0BBFAB4F894
S11322B0FC210321002000F0B5FA3878012815D15B
S11322C00020387098F80010207A88420ED2031942
S11322D000EB800C04EB4C1003F5027203F5017162
S11322E01030FFF71FF8207A401C2072307810B3AA
S11322F0207A03281FD10020307020722178B4F88E
S1132300F20150FA81F061784018A178401880B247
S1132310032190FBF1F0E0710020A4F8F201617A4E
S1132320E079FFF718F96968A4F8F001B4F8F0014E
S11323308861FEF7F0FFA079002882D00020A07108
S11323407FE700BFF010FF1F44E400E0591F0000C6
S11323507C04FF1F2804FF1F1504FF1F1604FF1F22
S11323600211FF1F0111FF1F0011FF1FF0B4052808
S113237000F27880DFE800F00316293C5063594AE4
S11323801268D36B23F4E06343F44073D363936B19
S113239023F4E06343F440739363534AD36843F4F0
S11323A0806337E04F4A9268D36823F4E06343F4D0
S11323B04073D360136923F4E06343F440731361FF
S11323C0494AD36843F4006324E0464AD2689368D8
S11323D023F4E06343F440739360D36823F4E0632D
S11323E043F44073D360404AD36843F4805311E00C
S11323F03C4A9268136C23F4E06343F4407313641F
S1132400536C23F4E06343F440735364364AD36853
S113241043F40053D36025E0324A1269536E23F427
S1132420E06343F440735366136E23F4E06343F4B0
S1132430407313662C4A136843F4806311E0294AFD
S1132440D268136A23F4E06343F440731362536A5B
S113245023F4E06343F440735362234A136843F460
S113246000631360214B024653F82240E57805F0DF
S1132470F305E570002453F82250AC70441EA441C7
S1132480012A18BF00204FF47A7550EAD47014BFA3
S1132490174818480068684353F822502E780901F9
S11324A0B0FBF1F427043F0E06F0E00607F01F0727
S11324B03E432E70400153F822506C70B0FBF1F093
S11324C053F82240A57A05F0E00500F01F002843E8
S11324D0A07253F82200C17841F00C01C170F0BC25
S11324E0704700004804FF1F288004405C04FF1F5D
S11324F0EC10FF1FF010FF1F114A136843F4000390
S11325001360104A13689B089B00136002010E4B72
S1132510D1504430D1188A6842F003028A60CA68F4
S113252042F00102CA60FFE7012100F01F0291405E
S1132530064A0004400D42F82010704700000000D5
S11325403C800440007003400071034000E100E05F
S113255080B5012201218020FEF760FEBDE808401D
S1132560012211468120FEF759BE000080B51723D1
S1132570B4220121012000F083F8BDE800501723A4
S1132580B4220021012000F07BB800BF034840685A
S113259041F2F81181610161704700002804FF1FB6
S11325A010B50D4C002100232246084600F068F8BF
S11325B0002322460121184600F062F80023224637
S11325C00221184600F05CF82246BDE810400023C2
S11325D00321184600F054B88038010080B5002368
S11325E000224FF47A71022000F032F921234FF4D3
S11325F07A7213210620FFF7F5F819496020087054
S113260065201849FEF752FE17496020087016200D
S1132610BDE804401549FEF749BEF8B504460F4627
S113262015461E4600F04EF92A78114B4FF47A7184
S113263011FB02F212FA80F038800E4A20781788D3
S113264011FB0070B3F900104904B0EB5140308025
S113265018884004400C1080002020702870F1BDC0
S113266055E400E06521000006E400E0FF200000DE
S1132670D6900040FC10FF1F002200F03DB900007E
S1132680F0B4DFF8BC4124684FF47A756C436508F4
S11326902C0CB4FBF2F6B6B2002400E0641C26FA5B
S11326A004F7012FFADAB2F57A7F38BF641CE540EB
S11326B0B5FBF2F292B2551C6B434FF47A75B3FB3F
S11326C0F5F320B1022800F0918071D316E0DFF811
S11326D07451EE6846F08076EE60072926D8DFE86C
S11326E001F00427313B4549535DDFF85C51AD6887
S11326F06E6826F4E06646F480666E6004F00704B3
S1132700DFF8485155F8200000EBC10144F02804DB
S1132710CD6825F00405CD609BB22825CD6004600A
S11327200024C4648260C4640B614460F0BC7047DC
S1132730DFF81451AD68AE6826F4E06646F48066AE
S1132740AE60DBE7DFF80051AD68EE6826F4E066C2
S113275046F48066EE60D1E7DFF8EC50AD682E6990
S113276026F4E06646F480662E61C7E7DFF8D850A9
S1132770ED68F4E7DFF8D050ED686E6926F4E066A2
S113278046F480666E61B9E7DFF8BC50ED68AE6967
S113279026F4E06646F48066AE61AFE7DFF8A85041
S11327A0ED68EE6926F4E06646F48066EE61A5E71E
S11327B0DFF89050EE6846F00076EE6019B101291A
S11327C00BD0F0BC7047DFF880502D682E6A26F4D9
S11327D0E06646F440762E6290E71B4D2D686E6AE3
S11327E026F4E06646F440766E6287E7154D2E685F
S11327F046F080762E6019B101290AD0F0BC7047EA
S1132800114D6D68AE6C26F4E06646F44076AE6415
S113281074E70D4D6D68EE6C26F4E06646F4407680
S1132820EE646BE7094B53F8200083685B1C5A4342
S11328304FF47A7300EBC100B2FBF3F2026170470C
S1132840F010FF1F308004404804FF1F2804FF1FBE
S113285030B4102AA8BF0F22012808D1214C2568C2
S113286045F4007525604FF4C0641F4D09E002284B
S113287008D11C4C256845F4006525604FF480643C
S11328801A4D2C60174C256845F00105256000257C
S1132890174C2560A160D10001F0780141F00401DA
S11328A06160012B0CBF08210021000100F0300001
S11328B0084340F0430020604FF400100D490860C5
S11328C030BC70470A490C20C860C8680A685208BE
S11328D052000A6080B20A6842F001020A6070473E
S11328E000000000388004404C90044014B00440C0
S11328F00000044008E100E0401810F0030308D091
S1132900C91A1FD3DB0748BF00F8012D28BF20F8E0
S1132910022D130030B414461546103928BF20E99F
S11329203C00FAD8490728BF20E90C0048BF40F80A
S1132930042D890028BF20F8022D48BF00F8012D7E
S113294030BC7047C91818BF00F8012DCB0728BF49
S113295000F8012D7047000030B51A4A1A4CADF644
S11329600C0D12680192019A019BA34208BF42F820
S1132970201024D00023ADF8003002AB0CE0BDF8E9
S11329800040BDF8005052F8255043F82450BDF8DB
S11329900040641CADF80040BDF80040B4F5007F71
S11329A0EDDB43F8201000F011F8002000F027F8C8
S11329B002AB4FF400620021002000F05DF80DF638
S11329C00C0D30BD08ED00E00000FF1F4648016813
S11329D041F400210160416841F4002141604CF25E
S11329E020514248C1814DF62811C1810021018046
S11329F03F4801780906FCD530210170704781B049
S1132A00C002009009213A48C1719DF802108171F9
S1132A109DF8011041719DF8001001713021017081
S1132A208021017001780906FCD531220178114218
S1132A3018BF01201ED10099B1F5006F19D80621E5
S1132A40C17100218171042141710C210171FF21A7
S1132A50C17281724172FE210172302101708021A4
S1132A60017001780906FCD50078104218BF0220D5
S1132A7000D1002001B0704738B40324214218BFAC
S1132A8001202FD11A4C0625C002E57110FA81F0FD
S1132A9000903125002004E00099091D001D0091DB
S1132AA01B1D90421DD29DF80210A1719DF80110CA
S1132AB061719DF800102171D978E1729978A17241
S1132AC05978617219782172302121708021217026
S1132AD021780906FCD521782942DDD032BC0220B8
S1132AE07047002032BC704704F0014000200540CC
S1132AF00000024070B4090601F0706141EA007000
S1132B00094C25682668110501F47001084319046D
S1132B1001F47021084346F47F06044926600860E6
S1132B20256070BC704700BF00F001404480044041
S1132B30DFF800F02508FF1F4449322803D10120A3
S1132B4018220A710EE0832833DA00EB8003132283
S1132B509800322390FBF3F01838C0B20A71202891
S1132B60A8BF1F20487132224879183012FB00F0A8
S1132B700A79521C90FBF2F000220A70801E3C225B
S1132B80B0FBF2F23223B0FBF3F34FF0190CD2B2E4
S1132B90B0FBFCF0102AA8BF0F22DBB24A70102B46
S1132BA0A8BF0F23C0B28B701028A8BF0F20C87015
S1132BB07047D32804DAC0EBC0030D225800C8E7DD
S1132BC010200D22BDE738B5FFF7B6FF204C2820B2
S1132BD06070B8202070A079C006FCD4A079C0F33E
S1132BE081000228FAD1194D287900F01F002071C4
S1132BF000206071EB78AA7869782878FFF798FF4D
S1132C00687900F01F0040F040006071A0798006F0
S1132C10FCD5A0794006FCD5207800F03F00207058
S1132C20A079C0F381000328FAD132226079217996
S1132C3000F01F00183001F01F0112FB00F0491CC6
S1132C40B0FBF1F04FF47A71484332BDF410FF1F2A
S1132C500040064062B38B0708D0521E11F8013BB6
S1132C6000F8013B00F024808B07F6D1830740F085
S1132C70208000BF103A07D330B4B1E83810103ABE
S1132C80A0E83810F9D230BC530724BFB1E80810CB
S1132C90A0E8081044BF51F8043B40F8043BD207B5
S1132CA024BF31F8022B20F8022B44BF0B780370A9
S1132CB07047083A07D3B1E80810083A40F8043BD3
S1132CC040F804CBF7D25307E4E7000010B51149EC
S1132CD0114C8C4204D04FF482522046FFF7CAFFB5
S1132CE00E480F4904600F48421A1CBF0E48FFF7F4
S1132CF0B1FF0E480E49091A18BFFFF7BDFC0D4974
S1132D000D48421A04D0BDE810400C48FFF7A2BF9A
S1132D1010BD00BF000000000000FF1F08ED00E030
S1132D20E01C0000581F00001004FF1F6008FF1F74
S1132D300711FF1F58290000302B00008806FF1FD1
S1132D4080B500F023F8FFF7C1FFFEF739FAB4208D
S1132D50FFF739FF0649074A08601268C2F30362A5
S1132D60521CB0FBF2F04860FFF70CFAFEE700BF1C
S1132D70EC10FF1F44800440084872B64CF2205106
S1132D8001804DF62811018062B6704780B5FFF7C7
S1132D90F3FF034801884FF6FE7203E00E2005405E
S1132DA0002005401140018001BD000010B5074915
S1132DB079441831064C7C44163404E00A68081D32
S1132DC0511888470146A142F8D110BD08000000FF
S1132DD014000000FFEAFFFFA80800006008FF1FBE
S1132DE0000000000120C046002801D0FFF7DEFFEC
S1132DF00020C046C046FFF7C5F900F000F800F017
S1132E0001B800000746384600F002F8FBE700006E
S1132E1080B5C046C046024A11001820ABBEFBE78D
S1132E2026000200C046C046C046C046FFF7DAFF8F
S9032E25A9
